{
  "_format": "hh-sol-artifact-1",
  "contractName": "ICO",
  "sourceName": "contracts/ICO.sol",
  "abi": [
    {
      "constant": true,
      "inputs": [],
      "name": "name",
      "outputs": [
        {
          "name": "",
          "type": "string"
        }
      ],
      "payable": false,
      "stateMutability": "view",
      "type": "function"
    },
    {
      "constant": false,
      "inputs": [
        {
          "name": "spender",
          "type": "address"
        },
        {
          "name": "tokens",
          "type": "uint256"
        }
      ],
      "name": "approve",
      "outputs": [
        {
          "name": "success",
          "type": "bool"
        }
      ],
      "payable": false,
      "stateMutability": "nonpayable",
      "type": "function"
    },
    {
      "constant": true,
      "inputs": [],
      "name": "totalSupply",
      "outputs": [
        {
          "name": "",
          "type": "uint256"
        }
      ],
      "payable": false,
      "stateMutability": "view",
      "type": "function"
    },
    {
      "constant": true,
      "inputs": [],
      "name": "allContributers",
      "outputs": [
        {
          "name": "",
          "type": "uint256"
        }
      ],
      "payable": false,
      "stateMutability": "view",
      "type": "function"
    },
    {
      "constant": false,
      "inputs": [
        {
          "name": "from",
          "type": "address"
        },
        {
          "name": "to",
          "type": "address"
        },
        {
          "name": "tokens",
          "type": "uint256"
        }
      ],
      "name": "transferFrom",
      "outputs": [
        {
          "name": "success",
          "type": "bool"
        }
      ],
      "payable": false,
      "stateMutability": "nonpayable",
      "type": "function"
    },
    {
      "constant": true,
      "inputs": [],
      "name": "myAddress",
      "outputs": [
        {
          "name": "",
          "type": "address"
        }
      ],
      "payable": false,
      "stateMutability": "view",
      "type": "function"
    },
    {
      "constant": true,
      "inputs": [
        {
          "name": "",
          "type": "address"
        }
      ],
      "name": "balances",
      "outputs": [
        {
          "name": "",
          "type": "uint256"
        }
      ],
      "payable": false,
      "stateMutability": "view",
      "type": "function"
    },
    {
      "constant": true,
      "inputs": [],
      "name": "decimals",
      "outputs": [
        {
          "name": "",
          "type": "uint256"
        }
      ],
      "payable": false,
      "stateMutability": "view",
      "type": "function"
    },
    {
      "constant": false,
      "inputs": [],
      "name": "endSale",
      "outputs": [],
      "payable": false,
      "stateMutability": "nonpayable",
      "type": "function"
    },
    {
      "constant": true,
      "inputs": [],
      "name": "bonusEnds",
      "outputs": [
        {
          "name": "",
          "type": "uint256"
        }
      ],
      "payable": false,
      "stateMutability": "view",
      "type": "function"
    },
    {
      "constant": true,
      "inputs": [
        {
          "name": "tokenOwner",
          "type": "address"
        }
      ],
      "name": "balanceOf",
      "outputs": [
        {
          "name": "balance",
          "type": "uint256"
        }
      ],
      "payable": false,
      "stateMutability": "view",
      "type": "function"
    },
    {
      "constant": true,
      "inputs": [],
      "name": "symbol",
      "outputs": [
        {
          "name": "",
          "type": "string"
        }
      ],
      "payable": false,
      "stateMutability": "view",
      "type": "function"
    },
    {
      "constant": true,
      "inputs": [],
      "name": "icoEnds",
      "outputs": [
        {
          "name": "",
          "type": "uint256"
        }
      ],
      "payable": false,
      "stateMutability": "view",
      "type": "function"
    },
    {
      "constant": true,
      "inputs": [],
      "name": "icoStarts",
      "outputs": [
        {
          "name": "",
          "type": "uint256"
        }
      ],
      "payable": false,
      "stateMutability": "view",
      "type": "function"
    },
    {
      "constant": false,
      "inputs": [
        {
          "name": "to",
          "type": "address"
        },
        {
          "name": "tokens",
          "type": "uint256"
        }
      ],
      "name": "transfer",
      "outputs": [
        {
          "name": "success",
          "type": "bool"
        }
      ],
      "payable": false,
      "stateMutability": "nonpayable",
      "type": "function"
    },
    {
      "constant": true,
      "inputs": [],
      "name": "myBalance",
      "outputs": [
        {
          "name": "",
          "type": "uint256"
        }
      ],
      "payable": false,
      "stateMutability": "view",
      "type": "function"
    },
    {
      "constant": false,
      "inputs": [],
      "name": "buyTokens",
      "outputs": [],
      "payable": true,
      "stateMutability": "payable",
      "type": "function"
    },
    {
      "constant": true,
      "inputs": [
        {
          "name": "tokenOwner",
          "type": "address"
        },
        {
          "name": "spender",
          "type": "address"
        }
      ],
      "name": "allowance",
      "outputs": [
        {
          "name": "remaining",
          "type": "uint256"
        }
      ],
      "payable": false,
      "stateMutability": "view",
      "type": "function"
    },
    {
      "inputs": [],
      "payable": false,
      "stateMutability": "nonpayable",
      "type": "constructor"
    },
    {
      "anonymous": false,
      "inputs": [
        {
          "indexed": true,
          "name": "from",
          "type": "address"
        },
        {
          "indexed": true,
          "name": "to",
          "type": "address"
        },
        {
          "indexed": false,
          "name": "tokens",
          "type": "uint256"
        }
      ],
      "name": "Transfer",
      "type": "event"
    },
    {
      "anonymous": false,
      "inputs": [
        {
          "indexed": true,
          "name": "tokenOwner",
          "type": "address"
        },
        {
          "indexed": true,
          "name": "spender",
          "type": "address"
        },
        {
          "indexed": false,
          "name": "tokens",
          "type": "uint256"
        }
      ],
      "name": "Approval",
      "type": "event"
    }
  ],
  "bytecode": "0x6060604052341561000f57600080fd5b60408051908101604052600981527f44656d6f20436f696e0000000000000000000000000000000000000000000000602082015260009080516100569291602001906100fc565b50601260025560408051908101604052600281527f4443000000000000000000000000000000000000000000000000000000000000602082015260019080516100a39291602001906100fc565b50426212750081016003556224ea00810160045560055569021e19e0c9bab2400000600781905560088054600160a060020a03191633600160a060020a0316908117909155600090815260096020526040902055610197565b828054600181600116156101000203166002900490600052602060002090601f016020900481019282601f1061013d57805160ff191683800117855561016a565b8280016001018555821561016a579182015b8281111561016a57825182559160200191906001019061014f565b5061017692915061017a565b5090565b61019491905b808211156101765760008155600101610180565b90565b6108ee806101a66000396000f3006060604052600436106100fb5763ffffffff7c010000000000000000000000000000000000000000000000000000000060003504166306fdde038114610100578063095ea7b31461018a57806318160ddd146101c05780631f88cb60146101e557806323b872dd146101f857806326b85ee11461022057806327e235e31461024f578063313ce5671461026e578063380d831b1461028157806340c650031461029657806370a08231146102a957806395d89b41146102c85780639a8ca12c146102db5780639c3e0f3f146102ee578063a9059cbb14610301578063c9116b6914610323578063d0febe4c14610336578063dd62ed3e1461033e575b600080fd5b341561010b57600080fd5b610113610363565b60405160208082528190810183818151815260200191508051906020019080838360005b8381101561014f578082015183820152602001610137565b50505050905090810190601f16801561017c5780820380516001836020036101000a031916815260200191505b509250505060405180910390f35b341561019557600080fd5b6101ac600160a060020a0360043516602435610401565b604051901515815260200160405180910390f35b34156101cb57600080fd5b6101d361046e565b60405190815260200160405180910390f35b34156101f057600080fd5b6101d3610474565b341561020357600080fd5b6101ac600160a060020a036004358116906024351660443561047a565b341561022b57600080fd5b61023361058d565b604051600160a060020a03909116815260200160405180910390f35b341561025a57600080fd5b6101d3600160a060020a0360043516610591565b341561027957600080fd5b6101d36105a3565b341561028c57600080fd5b6102946105a9565b005b34156102a157600080fd5b6101d36105ff565b34156102b457600080fd5b6101d3600160a060020a0360043516610605565b34156102d357600080fd5b610113610620565b34156102e657600080fd5b6101d361068b565b34156102f957600080fd5b6101d3610691565b341561030c57600080fd5b6101ac600160a060020a0360043516602435610697565b341561032e57600080fd5b6101d3610756565b610294610772565b341561034957600080fd5b6101d3600160a060020a036004358116906024351661084d565b60008054600181600116156101000203166002900480601f0160208091040260200160405190810160405280929190818152602001828054600181600116156101000203166002900480156103f95780601f106103ce576101008083540402835291602001916103f9565b820191906000526020600020905b8154815290600101906020018083116103dc57829003601f168201915b505050505081565b600160a060020a033381166000818152600a6020908152604080832094871680845294909152808220859055909291907f8c5be1e5ebec7d5bd14f71427d1e84f3dd0314c0f7b2291e5b200ac8c7c3b9259085905190815260200160405180910390a35060015b92915050565b60075490565b60065481565b600160a060020a0383166000908152600960205260408120546104a3908363ffffffff61087816565b600160a060020a03808616600090815260096020908152604080832094909455600a81528382203390931682529190915220546104e6908363ffffffff61087816565b600160a060020a038086166000908152600a60209081526040808320338516845282528083209490945591861681526009909152205461052c908363ffffffff61088d16565b600160a060020a03808516600081815260096020526040908190209390935591908616907fddf252ad1be2c89b69c2b068fc378daa952ba7f163c4a11628f55a4df523b3ef9085905190815260200160405180910390a35060019392505050565b3390565b60096020526000908152604090205481565b60025481565b60085433600160a060020a039081169116146105c457600080fd5b600854600160a060020a039081169030163180156108fc0290604051600060405180830381858888f1935050505015156105fd57600080fd5b565b60035481565b600160a060020a031660009081526009602052604090205490565b60018054600181600116156101000203166002900480601f0160208091040260200160405190810160405280929190818152602001828054600181600116156101000203166002900480156103f95780601f106103ce576101008083540402835291602001916103f9565b60045481565b60055481565b600160a060020a0333166000908152600960205260408120546106c0908363ffffffff61087816565b600160a060020a0333811660009081526009602052604080822093909355908516815220546106f5908363ffffffff61088d16565b600160a060020a0380851660008181526009602052604090819020939093559133909116907fddf252ad1be2c89b69c2b068fc378daa952ba7f163c4a11628f55a4df523b3ef9085905190815260200160405180910390a350600192915050565b600160a060020a03331660009081526009602052604090205490565b60035460009042116107965761078f34607d63ffffffff61089d16565b90506107aa565b6107a734606463ffffffff61089d16565b90505b600160a060020a0333166000908152600960205260409020546107d3908263ffffffff61088d16565b600160a060020a0333166000908152600960205260409020556007546107ff908263ffffffff61088d16565b600755600160a060020a03331660007fddf252ad1be2c89b69c2b068fc378daa952ba7f163c4a11628f55a4df523b3ef8360405190815260200160405180910390a350600680546001019055565b600160a060020a039182166000908152600a6020908152604080832093909416825291909152205490565b60008282111561088757600080fd5b50900390565b8181018281101561046857600080fd5b8181028215806108b757508183828115156108b457fe5b04145b151561046857600080fd00a165627a7a72305820376b3e0ca8beb241017107b3097f620e4dabcdd04e9fd8b544bab392e978c13e0029",
  "linkReferences": {},
  "deployedLinkReferences": {}
}